00COTAHIST.2024BOVESPA 20240402                                                                                                                                                                                                                      
012024040202JHSF3       010JHSF PART   ON  ED  NM   R$  000000000045700000000004760000000000448000000000046200000000004710000000000471000000000047406932000000000004364700000000002018332100000000000000009999123100000010000000000000BRJHSFACNOR2134
012024040202MRVE3       010MRV         ON      NM   R$  000000000076600000000007730000000000758000000000076500000000007640000000000763000000000076512174000000000009317600000000007127997300000000000000009999123100000010000000000000BRMRVEACNOR2126
012024040202MTRE3       010MITRE REALTYON      NM   R$  000000000051800000000005390000000000511000000000052600000000005380000000000535000000000053803960000000000001488100000000000782886900000000000000009999123100000010000000000000BRMTREACNOR6109
012024040202MTSA4       010METISA      PN           R$  000000000493200000000049320000000004822000000000484600000000048220000000004821000000000485900018000000000000002900000000000014053700000000000000009999123100000010000000000000BRMTSAACNPR9071
012024040202MULT3       010MULTIPLAN   ON      N2   R$  000000000251000000000025310000000002496000000000251300000000025250000000002524000000000252513416000000000002848300000000007158936800000000000000009999123100000010000000000000BRMULTACNOR5137
012024040202WEGE3       010WEG         ON  EJ  NM   R$  000000000378600000000038310000000003780000000000380900000000038170000000003816000000000381914021000000000005312400000000020237445800000000000000009999123100000010000000000000BRWEGEACNOR0222
012024040202REDE3       010REDE ENERGIAON           R$  000000000068500000000006920000000000678000000000068200000000006820000000000681000000000069000016000000000000003900000000000002659800000000000000009999123100000010000000000000BRREDEACNOR7127
012024040202RENT3       010LOCALIZA    ON  EJ  NM   R$  000000000515700000000052710000000005151000000000521000000000052440000000005241000000000525125612000000000008932300000000046541241800000000000000009999123100000010000000000000BRRENTACNOR4195
012024040202TASA3       010TAURUS ARMASON      N2   R$  000000000135000000000013600000000001312000000000132500000000013290000000001317000000000133000190000000000000037700000000000049976200000000000000009999123100000010000000000000BRTASAACNOR7103
012024040202TASA4       010TAURUS ARMASPN      N2   R$  000000000130600000000013090000000001278000000000128600000000012960000000001293000000000129603720000000000000649600000000000835906600000000000000009999123100000010000000000000BRTASAACNPR4103
012024040202TCSA3       010TECNISA     ON      NM   R$  000000000028700000000002940000000000282000000000028700000000002920000000000286000000000029200171000000000000066200000000000019029800000000000000009999123100000010000000000000BRTCSAACNOR3112
012024040202TECN3       010TECHNOS     ON      NM   R$  000000000046800000000004880000000000456000000000047800000000004750000000000475000000000048801302000000000000338800000000000162270700000000000000009999123100000010000000000000BRTECNACNOR6109
012024040202TELB3       010TELEBRAS    ON           R$  000000000141700000000014170000000001417000000000141700000000014170000000001395000000000142000002000000000000000200000000000000283400000000000000009999123100000010000000000000BRTELBACNOR2140
012024040202TELB4       010TELEBRAS    PN           R$  000000000103700000000010370000000000999000000000100400000000010180000000001000000000000101700013000000000000002500000000000002510500000000000000009999123100000010000000000000BRTELBACNPR9140
012024040202VITT3       010VITTIA      ON      NM   R$  000000000068000000000006800000000000647000000000066000000000006590000000000659000000000066002328000000000000606900000000000400563000000000000000009999123100000010000000000000BRVITTACNOR4106
012024040202VIVA3       010VIVARA S.A. ON      NM   R$  000000000250500000000025140000000002453000000000247600000000024890000000002487000000000249009527000000000002236800000000005540016600000000000000009999123100000010000000000000BRVIVAACNOR0106
012024040202VIVR3       010VIVER       ON      NM   R$  000000000031200000000003200000000000301000000000030900000000003120000000000312000000000031400263000000000000152000000000000047058700000000000000009999123100000010000000000000BRVIVRACNOR4122
012024040202VIVT3       010TELEF BRASILON  EJ       R$  000000000508500000000050850000000005026000000000505400000000050470000000005044000000000504806866000000000001474300000000007451376900000000000000009999123100000010000000000000BRVIVTACNOR0179
012024040202VLID3       010VALID       ON      NM   R$  000000000183300000000019090000000001829000000000188100000000018930000000001891000000000190102875000000000000513500000000000965961500000000000000009999123100000010000000000000BRVLIDACNOR5141
012024040202VSTE3       010VESTE       ON      NM   R$  000000000169400000000017010000000001673000000000168700000000016870000000001403000000000168700025000000000000003100000000000005231000000000000000009999123100000010000000000000BRVSTEACNOR5102
012024040202RCSL3       010RECRUSUL    ON           R$  000000000018200000000001880000000000182000000000018500000000001880000000000187000000000018803589000000000001887300000000000350085700000000000000009999123100000010000000000000BRRCSLACNOR4133
012024040202RCSL4       010RECRUSUL    PN           R$  000000000007000000000000700000000000068000000000006900000000000700000000000069000000000007000683000000000000867600000000000059876500000000000000009999123100000010000000000000BRRCSLACNPR1133
012024040202RDNI3       010RNI         ON      NM   R$  000000000037200000000003790000000000371000000000037300000000003730000000000372000000000037600019000000000000042700000000000015930500000000000000009999123100000010000000000000BRRDNIACNOR9116
012024040202RDOR3       010REDE D OR   ON  EJ  NM   R$  000000000252200000000025330000000002490000000000251100000000025090000000002509000000000251009329000000000002850400000000007159572600000000000000009999123100000010000000000000BRRDORACNOR8112
012024040202RECV3       010PETRORECSA  ON      NM   R$  000000000219500000000021950000000002100000000000215500000000021070000000002107000000000210825194000000000010879400000000023452558600000000000000009999123100000010000000000000BRRECVACNOR3105
012024040202SYNE3       010SYN PROP TECON      NM   R$  000000000086100000000008700000000000856000000000086200000000008580000000000857000000000086200848000000000000231100000000000199365200000000000000009999123100000010000000000000BRSYNEACNOR2102
012024040202VULC3       010VULCABRAS   ON      NM   R$  000000000167200000000016850000000001645000000000167100000000016820000000001682000000000168304543000000000000800100000000001337308400000000000000009999123100000010000000000000BRVULCACNOR2158
012024040202RANI3       010IRANI       ON      NM   R$  000000000092600000000009370000000000912000000000092000000000009280000000000925000000000092804489000000000000854200000000000786493700000000000000009999123100000010000000000000BRRANIACNOR5070
012024040202RAPT3       010RANDON PART ON      N1   R$  000000000104600000000010580000000001036000000000104300000000010580000000001039000000000105800066000000000000021600000000000022549400000000000000009999123100000010000000000000BRRAPTACNOR7162
012024040202RAPT4       010RANDON PART PN      N1   R$  000000000128300000000012840000000001251000000000126400000000012610000000001260000000000126106716000000000002414000000000003051889200000000000000009999123100000010000000000000BRRAPTACNPR4162
012024040202MLAS3       010MULTILASER  ON      NM   R$  000000000024300000000002470000000000231000000000023800000000002470000000000247000000000024805878000000000002206200000000000526359000000000000000009999123100000010000000000000BRMLASACNOR9101
012024040202MNPR3       010MINUPAR     ON           R$  000000000196600000000019660000000001966000000000196600000000019660000000001966000000000207400001000000000000000200000000000000393200000000000000009999123100000010000000000000BRMNPRACNOR5122
012024040202MOVI3       010MOVIDA      ON      NM   R$  000000000085100000000008580000000000816000000000082500000000008200000000000820000000000082409251000000000004339300000000003582292200000000000000009999123100000010000000000000BRMOVIACNOR0122
012024040202MRFG3       010MARFRIG     ON      NM   R$  000000000102200000000010290000000000999000000000101500000000010170000000001015000000000102015334000000000008910700000000009051931000000000000000009999123100000010000000000000BRMRFGACNOR0116
012024040202SCAR3       010SAO CARLOS  ON      NM   R$  000000000269100000000027180000000002690000000000270100000000027000000000002700000000000274000013000000000000002000000000000005402700000000000000009999123100000010000000000000BRSCARACNOR7130
012024040202SEER3       010SER EDUCA   ON      NM   R$  000000000069200000000007330000000000665000000000070600000000007320000000000732000000000073303667000000000001247200000000000880733200000000000000009999123100000010000000000000BRSEERACNOR5119
012024040202SEQL3       010SEQUOIA LOG ON      NM   R$  000000000003900000000000400000000000033000000000003400000000000340000000000034000000000003517202000000000050558800000000001767387000000000000000009999123100000010000000000000BRSEQLACNOR2101
012024040202SGPS3       010SPRINGS     ON      NM   R$  000000000008200000000000820000000000078000000000007900000000000800000000000079000000000008000212000000000000163100000000000012996100000000000000009999123100000010000000000000BRSGPSACNOR4104
012024040202SHOW3       010TIME FOR FUNON      NM   R$  000000000027500000000002790000000000255000000000026600000000002710000000000271000000000027800516000000000000296900000000000079256700000000000000009999123100000010000000000000BRSHOWACNOR7105
012024040202SHUL4       010SCHULZ      PN  EJ       R$  000000000066600000000006660000000000651000000000065800000000006600000000000660000000000066201709000000000000511100000000000336610200000000000000009999123100000010000000000000BRSHULACNPR4155
012024040202SIMH3       010SIMPAR      ON      NM   R$  000000000071900000000007200000000000700000000000070800000000007050000000000705000000000070709129000000000004173300000000002957137200000000000000009999123100000010000000000000BRSIMHACNOR0107
012024040202DXCO3       010DEXCO       ON      NM   R$  000000000075200000000007580000000000743000000000075000000000007550000000000754000000000075607651000000000003230400000000002423624200000000000000009999123100000010000000000000BRDXCOACNOR8105
012024040202GGPS3       010GPS         ON      NM   R$  000000000205200000000020780000000002032000000000205300000000020560000000002056000000000206909775000000000002895400000000005945698300000000000000009999123100000010000000000000BRGGPSACNOR9102
012024040202GMAT3       010GRUPO MATEUSON  EJ  NM   R$  000000000084200000000008440000000000821000000000083200000000008350000000000834000000000083604841000000000003032500000000002523161100000000000000009999123100000010000000000000BRGMATACNOR7101
012024040202GOAU3       010GERDAU MET  ON      N1   R$  000000000106900000000010780000000001059000000000106600000000010740000000001066000000000107500274000000000000054900000000000058524600000000000000009999123100000010000000000000BRGOAUACNOR1266
012024040202GOAU4       010GERDAU MET  PN      N1   R$  000000000103800000000010500000000001030000000000104100000000010500000000001048000000000105011047000000000006674200000000006953463700000000000000009999123100000010000000000000BRGOAUACNPR8267
012024040202MILS3       010MILLS       ON  EJ  NM   R$  000000000136400000000013640000000001299000000000131800000000013380000000001326000000000133803899000000000001456300000000001919577700000000000000009999123100000010000000000000BRMILSACNOR2125
012024040202SLCE3       010SLC AGRICOLAON      NM   R$  000000000200000000000020080000000001966000000000198000000000019820000000001981000000000198606911000000000002129400000000004217741600000000000000009999123100000010000000000000BRSLCEACNOR2124
012024040202POMO3       010MARCOPOLO   ON      N2   R$  000000000058400000000005840000000000566000000000057200000000005820000000000578000000000058200930000000000000511300000000000292881100000000000000009999123100000010000000000000BRPOMOACNOR0097
012024040202POMO4       010MARCOPOLO   PN      N2   R$  000000000075400000000007590000000000727000000000074400000000007580000000000755000000000075810516000000000004880600000000003633502700000000000000009999123100000010000000000000BRPOMOACNPR7097
012024040202PORT3       010WILSON SONS ON      NM   R$  000000000178800000000017920000000001774000000000178600000000017900000000001783000000000179202483000000000000872500000000001558733100000000000000009999123100000010000000000000BRPORTACNOR8106
012024040202POSI3       010POSITIVO TECON      NM   R$  000000000104800000000010960000000001021000000000106600000000010940000000001085000000000109406769000000000002875000000000003064995000000000000000009999123100000010000000000000BRPOSIACNOR9115
012024040202PRIO3       010PETRORIO    ON      NM   R$  000000000486900000000049300000000004860000000000489900000000049050000000004905000000000490721954000000000008718100000000042712675200000000000000009999123100000010000000000000BRPRIOACNOR1106
012024040202SAPR11      010SANEPAR     UNT     N2   R$  000000000258100000000025890000000002551000000000257200000000025890000000002588000000000258904120000000000000751900000000001934528900000000000000009999123100000010000000000000BRSAPRCDAM13117
012024040202SAPR3       010SANEPAR     ON      N2   R$  000000000049900000000005020000000000495000000000049700000000005020000000000500000000000050200433000000000000190500000000000094815500000000000000009999123100000010000000000000BRSAPRACNOR9158
012024040202SAPR4       010SANEPAR     PN      N2   R$  000000000051900000000005210000000000514000000000051700000000005200000000000519000000000052002047000000000001381300000000000714639000000000000000009999123100000010000000000000BRSAPRACNPR6158
012024040202SBFG3       010GRUPO SBF   ON      NM   R$  000000000131500000000013380000000001295000000000131200000000013300000000001330000000000133108157000000000001877400000000002464069700000000000000009999123100000010000000000000BRSBFGACNOR1102
012024040202SBSP3       010SABESP      ON      NM   R$  000000000830000000000083700000000008139000000000820800000000082040000000008200000000000821014020000000000003460500000000028404071700000000000000009999123100000010000000000000BRSBSPACNOR5160
012024040202VALE3       010VALE        ON      NM   R$  000000000613700000000062470000000006130000000000619800000000061940000000006193000000000619548541000000000022583000000000139977195400000000000000009999123100000010000000000000BRVALEACNOR0210
012024040202ZAMP3       010ZAMP S.A.   ON           R$  000000000032600000000003300000000000315000000000032100000000003270000000000324000000000032702290000000000000697900000000000224624800000000000000009999123100000010000000000000BRZAMPACNOR5100
012024040202BIOM3       010BIOMM       ON      MA   R$  000000000101000000000011500000000001007000000000106400000000010120000000001012000000000102400346000000000000079000000000000084134800000000000000009999123100000010000000000000BRBIOMACNOR2112
012024040202PFRM3       010PROFARMA    ON      NM   R$  000000000055700000000005570000000000533000000000053900000000005370000000000537000000000054100712000000000000222100000000000119813800000000000000009999123100000010000000000000BRPFRMACNOR1116
012024040202PGMN3       010PAGUE MENOS ON      NM   R$  000000000026700000000002700000000000266000000000026800000000002690000000000267000000000026903023000000000000685100000000000183662800000000000000009999123100000010000000000000BRPGMNACNOR8103
012024040202PINE3       010PINE        ON      N2   R$  000000000077400000000007740000000000773000000000077300000000007730000000000707000000000077300002000000000000000700000000000000541300000000000000009999123100000010000000000000BRPINEACNOR1148
012024040202PINE4       010PINE        PN      N2   R$  000000000045800000000004690000000000452000000000046300000000004610000000000461000000000046400902000000000000199200000000000092358000000000000000009999123100000010000000000000BRPINEACNPR8148
012024040202PLAS3       010PLASCAR PARTON           R$  000000000090000000000009000000000000900000000000090000000000009000000000000850000000000090000002000000000000000300000000000000270000000000000000009999123100000010000000000000BRPLASACNOR2106
012024040202SANB11      010SANTANDER BRUNT          R$  000000000283300000000028330000000002797000000000281000000000028150000000002812000000000281505303000000000001471600000000004135494700000000000000009999123100000010000000000000BRSANBCDAM13163
012024040202SANB3       010SANTANDER BRON           R$  000000000132700000000013340000000001319000000000132400000000013320000000001328000000000133200445000000000000072200000000000095647900000000000000009999123100000010000000000000BRSANBACNOR8170
012024040202SANB4       010SANTANDER BRPN           R$  000000000148800000000014920000000001479000000000148400000000014920000000001482000000000149200472000000000000083900000000000124579100000000000000009999123100000010000000000000BRSANBACNPR5170
012024040202UNIP3       010UNIPAR      ON           R$  000000000611000000000061980000000006110000000000614400000000061300000000006130000000000618800056000000000000005700000000000035023200000000000000009999123100000010000000000000BRUNIPACNOR7205
012024040202UNIP5       010UNIPAR      PNA          R$  000000000723900000000072400000000006976000000000713800000000070970000000006771000000000709600004000000000000000400000000000002855200000000000000009999123100000010000000000000BRUNIPACNPA0207
012024040202UNIP6       010UNIPAR      PNB          R$  000000000662000000000066480000000006489000000000653800000000065310000000006531000000000653801518000000000000210400000000001375804700000000000000009999123100000010000000000000BRUNIPACNPB8205
012024040202CXSE3       010CAIXA SEGURION      NM   R$  000000000153900000000015410000000001512000000000152600000000015260000000001526000000000153508351000000000003276100000000004999771300000000000000009999123100000010000000000000BRCXSEACNOR7105
012024040202CYRE3       010CYRELA REALTON      NM   R$  000000000243800000000024380000000002363000000000238700000000023870000000002386000000000239418955000000000005906700000000014102110500000000000000009999123100000010000000000000BRCYREACNOR7139
012024040202FRIO3       010METALFRIO   ON      NM   R$  000000003020000000000302000000000030200000000003020000000000302000000000020000000000003100000001000000000000000100000000000003020000000000000000009999123100000010000000000000BRFRIOACNOR2111
012024040202GFSA3       010GAFISA      ON      NM   R$  000000000067700000000006820000000000647000000000066600000000006700000000000667000000000067001999000000000001073100000000000715673600000000000000009999123100000010000000000000BRGFSAACNOR3124
012024040202GGBR3       010GERDAU      ON      N1   R$  000000000201100000000020270000000001992000000000201100000000020170000000002016000000000202400310000000000000059300000000000119309400000000000000009999123100000010000000000000BRGGBRACNOR1190
012024040202GGBR4       010GERDAU      PN      N1   R$  000000000223700000000022750000000002216000000000224200000000022470000000002247000000000224820849000000000008815700000000019770039500000000000000009999123100000010000000000000BRGGBRACNPR8190
012024040202AVLL3       010ALPHAVILLE  ON      NM   R$  000000000038000000000003800000000000380000000000038100000000003800000000000384000000000038900003000000000000000300000000000000114400000000000000009999123100000010000000000000BRAVLLACNOR5103
012024040202AZEV3       010AZEVEDO     ON           R$  000000000013600000000001400000000000125000000000012900000000001280000000000128000000000012900679000000000000609200000000000079133900000000000000009999123100000010000000000000BRAZEVACNOR0121
012024040202AZEV4       010AZEVEDO     PN           R$  000000000011400000000001170000000000104000000000010900000000001060000000000106000000000010703463000000000004069800000000000443657500000000000000009999123100000010000000000000BRAZEVACNPR7121
012024040202AZUL4       010AZUL        PN      N2   R$  000000000129300000000013090000000001260000000000127400000000012600000000001260000000000126113794000000000008665600000000011042112200000000000000009999123100000010000000000000BRAZULACNPR4102
012024040202B3SA3       010B3          ON  EJ  NM   R$  000000000118200000000011850000000001162000000000117000000000011730000000001172000000000117437901000000000061624700000000072129749800000000000000009999123100000010000000000000BRB3SAACNOR6132
012024040202BGIP4       010BANESE      PN           R$  000000000230000000000023050000000002300000000000230100000000023050000000002300000000000233400002000000000000000300000000000000690500000000000000009999123100000010000000000000BRBGIPACNPR8208
012024040202BHIA3       010CASAS BAHIA ON      NM   R$  000000000069400000000007080000000000641000000000067100000000006960000000000696000000000069709397000000000008189900000000005498540900000000000000009999123100000010000000000000BRBHIAACNOR1101
012024040202BRIT3       010BRISANET    ON      NM   R$  000000000045900000000004590000000000431000000000043600000000004330000000000433000000000043401351000000000000873700000000000381447000000000000000009999123100000010000000000000BRBRITACNOR0102
012024040202BRKM3       010BRASKEM     ON      N1   R$  000000000255000000000025900000000002507000000000255400000000025110000000002495000000000254700102000000000000015900000000000040614500000000000000009999123100000010000000000000BRBRKMACNOR1119
012024040202BRKM5       010BRASKEM     PNA     N1   R$  000000000262500000000026570000000002598000000000262100000000026040000000002603000000000260908674000000000002698700000000007074585600000000000000009999123100000010000000000000BRBRKMACNPA4121
012024040202CSRN3       010COSERN      ON  EJ       R$  000000000250000000000025000000000002418000000000247200000000024990000000002418000000000250000003000000000000000300000000000000741700000000000000009999123100000010000000000000BRCSRNACNOR0191
012024040202CSRN5       010COSERN      PNA EJ       R$  000000000220000000000024000000000002200000000000230400000000023170000000002212000000000244000004000000000000000400000000000000921700000000000000009999123100000010000000000000BRCSRNACNPA3191
012024040202CSRN6       010COSERN      PNB EJ       R$  000000000230000000000023000000000002300000000000230000000000023000000000002310000000000279500001000000000000000100000000000000230000000000000000009999123100000010000000000000BRCSRNACNPB1192
012024040202CSUD3       010CSU DIGITAL ON  EJ  NM   R$  000000000207800000000021250000000002016000000000206500000000020790000000002079000000000208000236000000000000053000000000000109494400000000000000009999123100000010000000000000BRCSUDACNOR5108
012024040202CTKA3       010KARSTEN     ON           R$  000000000210000000000021000000000002100000000000210000000000021000000000001000000000000230000001000000000000000100000000000000210000000000000000009999123100000010000000000000BRCTKAACNOR0043
012024040202CTKA4       010KARSTEN     PN           R$  000000000193600000000021640000000001933000000000193700000000021640000000001811000000000216500011000000000000006800000000000013173200000000000000009999123100000010000000000000BRCTKAACNPR7043
012024040202CTNM4       010COTEMINAS   PN           R$  000000000012000000000001240000000000120000000000012000000000001210000000000120000000000012200022000000000000016800000000000002027700000000000000009999123100000010000000000000BRCTNMACNPR6129
012024040202CTSA3       010SANTANENSE  ON           R$  000000000030900000000003090000000000309000000000030700000000003090000000000306000000000030700002000000000000000200000000000000061500000000000000009999123100000010000000000000BRCTSAACNOR3062
012024040202CTSA4       010SANTANENSE  PN           R$  000000000015800000000001630000000000157000000000015900000000001610000000000158000000000016200144000000000000023400000000000003742500000000000000009999123100000010000000000000BRCTSAACNPR0062
012024040202CURY3       010CURY S/A    ON      NM   R$  000000000201000000000020780000000001994000000000204900000000020620000000002061000000000206710248000000000002286500000000004685358800000000000000009999123100000010000000000000BRCURYACNOR3107
012024040202CVCB3       010CVC BRASIL  ON      NM   R$  000000000027000000000002740000000000262000000000026700000000002690000000000269000000000027019096000000000023793700000000006354533100000000000000009999123100000010000000000000BRCVCBACNOR1115
012024040202EZTC3       010EZTEC       ON  ED  NM   R$  000000000163800000000016420000000001606000000000162100000000016230000000001622000000000162904204000000000001133500000000001837633500000000000000009999123100000010000000000000BREZTCACNOR0124
012024040202TAEE11      010TAESA       UNT     N2   R$  000000000363400000000036400000000003601000000000361900000000036150000000003614000000000362106083000000000001773800000000006420899500000000000000009999123100000010000000000000BRTAEECDAM10145
012024040202TAEE3       010TAESA       ON      N2   R$  000000000120300000000012040000000001195000000000119900000000011990000000001197000000000120000408000000000000072000000000000086376700000000000000009999123100000010000000000000BRTAEEACNOR9145
012024040202TAEE4       010TAESA       PN      N2   R$  000000000121600000000012170000000001205000000000121100000000012150000000001215000000000121600710000000000000231800000000000280910600000000000000009999123100000010000000000000BRTAEEACNPR6145
012024040202VAMO3       010VAMOS       ON      NM   R$  000000000083000000000008320000000000803000000000081100000000008060000000000805000000000080711611000000000005458200000000004428580000000000000000009999123100000010000000000000BRVAMOACNOR7105
012024040202VBBR3       010VIBRA       ON      NM   R$  000000000251600000000025500000000002488000000000252100000000025390000000002537000000000254024059000000000010536000000000026567665500000000000000009999123100000010000000000000BRVBBRACNOR1106
012024040202BLAU3       010BLAU        ON  EJ  NM   R$  000000000120300000000012230000000001190000000000120700000000012230000000001215000000000122301727000000000000384100000000000463925900000000000000009999123100000010000000000000BRBLAUACNOR8112
012024040202BRSR3       010BANRISUL    ON      N1   R$  000000000130100000000013170000000001291000000000130800000000012950000000001301000000000131800028000000000000004100000000000005365600000000000000009999123100000010000000000000BRBRSRACNOR3186
012024040202BRSR6       010BANRISUL    PNB     N1   R$  000000000130900000000013250000000001305000000000131600000000013160000000001316000000000132104495000000000001245400000000001639974600000000000000009999123100000010000000000000BRBRSRACNPB4189
012024040202BSLI3       010BRB BANCO   ON           R$  000000000110100000000011010000000001100000000000110000000000011010000000001092000000000110100008000000000000001900000000000002090800000000000000009999123100000010000000000000BRBSLIACNOR5192
012024040202BSLI4       010BRB BANCO   PN           R$  000000000100100000000010110000000000999000000000100200000000010020000000001012000000000104400009000000000000001300000000000001303400000000000000009999123100000010000000000000BRBSLIACNPR2192
012024040202BBAS3       010BRASIL      ON      NM   R$  000000000560500000000056340000000005577000000000560100000000056170000000005617000000000561814250000000000005256500000000029441886400000000000000009999123100000010000000000000BRBBASACNOR3321
012024040202BMEB4       010MERCANTIL   PN      N1   R$  000000000247500000000024870000000002395000000000243000000000024000000000002400000000000242900034000000000000006600000000000016039900000000000000009999123100000010000000000000BRBMEBACNPR5210
012024040202BMGB4       010BANCO BMG   PN      N1   R$  000000000034200000000003500000000000342000000000034600000000003470000000000347000000000034900699000000000000417400000000000144801900000000000000009999123100000010000000000000BRBMGBACNPR0108
012024040202BMIN4       010MERC INVEST PN           R$  000000000159900000000015990000000001599000000000159900000000015990000000001521000000000159900001000000000000000100000000000000159900000000000000009999123100000010000000000000BRBMINACNPR1176
012024040202BMKS3       010BIC MONARK  ON           R$  000000003969200000000396990000000039692000000003969500000000396990000000038150000000003969900005000000000000000005000000000000198475000000000000009999123100000010000000000000BRBMKSACNOR9165
012024040202BMOB3       010BEMOBI TECH ON      NM   R$  000000000137000000000013700000000001325000000000135000000000013600000000001354000000000136101392000000000000321700000000000434612600000000000000009999123100000010000000000000BRBMOBACNOR7103
012024040202BNBR3       010NORD BRASIL ON  ERJ      R$  000000001090000000000109000000000010900000000001090000000000109000000000010500000000001080000001000000000000000100000000000001090000000000000000009999123100000010000000000000BRBNBRACNOR8207
012024040202BOBR4       010BOMBRIL     PN           R$  000000000023100000000002310000000000209000000000022500000000002280000000000221000000000022800069000000000000035200000000000007925200000000000000009999123100000010000000000000BRBOBRACNPR3128
012024040202CBAV3       010CBA         ON      NM   R$  000000000040900000000004100000000000401000000000040400000000004040000000000403000000000040404015000000000001619900000000000654788300000000000000009999123100000010000000000000BRCBAVACNOR5104
012024040202CCRO3       010CCR SA      ON      NM   R$  000000000136600000000013750000000001347000000000136000000000013650000000001365000000000136610450000000000008410600000000011443233600000000000000009999123100000010000000000000BRCCROACNOR2144
012024040202CEAB3       010CEA MODAS   ON      NM   R$  000000000107500000000010800000000001027000000000106000000000010720000000001069000000000107207971000000000003197600000000003392356900000000000000009999123100000010000000000000BRCEABACNOR1102
012024040202CEBR3       010CEB         ON           R$  000000000210000000000021220000000002061000000000209000000000021030000000002065000000000211000022000000000000003300000000000006898900000000000000009999123100000010000000000000BRCEBRACNOR5124
012024040202CEBR5       010CEB         PNA          R$  000000000193500000000019350000000001900000000000191400000000019010000000001900000000000192400009000000000000001100000000000002106200000000000000009999123100000010000000000000BRCEBRACNPA8123
012024040202CEBR6       010CEB         PNB          R$  000000000207500000000021510000000002071000000000210300000000020880000000002088000000000212900027000000000000006100000000000012831500000000000000009999123100000010000000000000BRCEBRACNPB6123
012024040202CEDO3       010CEDRO       ON      N1   R$  000000000320000000000032000000000003200000000000320000000000032000000000002900000000000330000002000000000000000800000000000002560000000000000000009999123100000010000000000000BRCEDOACNOR8096
012024040202CEDO4       010CEDRO       PN      N1   R$  000000000281500000000029500000000002752000000000284300000000027520000000002701000000000280000019000000000000003700000000000010521900000000000000009999123100000010000000000000BRCEDOACNPR5128
012024040202CEEB3       010COELBA      ON  EJ       R$  000000000394700000000039470000000003940000000000394300000000039400000000003861000000000394000002000000000000000200000000000000788700000000000000009999123100000010000000000000BRCEEBACNOR3197
012024040202CGAS3       010COMGAS      ON           R$  000000001350000000000137990000000013000000000001340000000000134840000000013484000000001350000053000000000000007300000000000097821500000000000000009999123100000010000000000000BRCGASACNOR0162
012024040202CGAS5       010COMGAS      PNA          R$  000000001437000000000147000000000014100000000001448100000000145630000000014551000000001459500099000000000000013500000000000195493600000000000000009999123100000010000000000000BRCGASACNPA3159
012024040202CGRA3       010GRAZZIOTIN  ON           R$  000000000268800000000027090000000002651000000000268700000000027090000000002655000000000271000009000000000000001000000000000002687900000000000000009999123100000010000000000000BRCGRAACNOR2081
012024040202CGRA4       010GRAZZIOTIN  PN           R$  000000000278000000000027800000000002710000000000274100000000027700000000002770000000000281900031000000000000004400000000000012062600000000000000009999123100000010000000000000BRCGRAACNPR9081
012024040202CIEL3       010CIELO       ON      NM   R$  000000000054600000000005490000000000538000000000054300000000005440000000000543000000000054513945000000000022017700000000011975440400000000000000009999123100000010000000000000BRCIELACNOR3157
012024040202BALM4       010BAUMER      PN           R$  000000000103900000000010850000000001025000000000107000000000010800000000001025000000000108300010000000000000002200000000000002354000000000000000009999123100000010000000000000BRBALMACNPR2056
012024040202BAUH4       010EXCELSIOR   PN           R$  000000000797900000000079790000000007979000000000797900000000079790000000000000000000000798000002000000000000000300000000000002393700000000000000009999123100000010000000000000BRBAUHACNPR3117
012024040202BAZA3       010AMAZONIA    ON           R$  000000001022000000000102230000000010000000000001010700000000102230000000010058000000001022300024000000000000003100000000000031334400000000000000009999123100000010000000000000BRBAZAACNOR0178
012024040202PCAR3       010P.ACUCAR-CBDON      NM   R$  000000000028300000000002940000000000279000000000028700000000002880000000000288000000000028908916000000000020609300000000005917640400000000000000009999123100000010000000000000BRPCARACNOR3167
012024040202AALR3       010ALLIAR      ON      NM   R$  000000000092000000000009250000000000891000000000091000000000009250000000000913000000000092500640000000000000092600000000000084324500000000000000009999123100000010000000000000BRAALRACNOR6102
012024040202ABCB4       010ABC BRASIL  PN      N2   R$  000000000250000000000025650000000002488000000000251800000000025080000000002502000000000250803944000000000000822100000000002070618800000000000000009999123100000010000000000000BRABCBACNPR4145
012024040202ABEV3       010AMBEV S/A   ON           R$  000000000123400000000012420000000001227000000000123200000000012270000000001227000000000122827381000000000019115800000000023562752600000000000000009999123100000010000000000000BRABEVACNOR1127
012024040202BBDC3       010BRADESCO    ON  EJ  N1   R$  000000000125100000000012710000000001251000000000126100000000012630000000001263000000000126506817000000000006601100000000008328309500000000000000009999123100000010000000000000BRBBDCACNOR1768
012024040202BBDC4       010BRADESCO    PN  EJ  N1   R$  000000000141100000000014310000000001405000000000141800000000014190000000001419000000000142021554000000000024862500000000035272664300000000000000009999123100000010000000000000BRBBDCACNPR8768
012024040202COCE5       010COELCE      PNA          R$  000000000358900000000036000000000003521000000000355800000000035660000000003543000000000357400063000000000000011700000000000041637400000000000000009999123100000010000000000000BRCOCEACNPA3146
012024040202COGN3       010COGNA ON    ON      NM   R$  000000000023800000000002390000000000232000000000023400000000002350000000000235000000000023616945000000000021876700000000005137420400000000000000009999123100000010000000000000BRCOGNACNOR2104
012024040202EKTR4       010ELEKTRO     PN  EJ       R$  000000000470000000000049770000000004450000000000465300000000049770000000004830000000000497700013000000000000002100000000000009772200000000000000009999123100000010000000000000BREKTRACNPR7160
012024040202ELET3       010ELETROBRAS  ON      N1   R$  000000000408600000000041080000000004039000000000407300000000040760000000004076000000000408017753000000000007324200000000029836810000000000000000009999123100000010000000000000BRELETACNOR6159
012024040202ELET6       010ELETROBRAS  PNB     N1   R$  000000000460000000000046050000000004537000000000457100000000045840000000004581000000000458403346000000000000601800000000002751131500000000000000009999123100000010000000000000BRELETACNPB7076
012024040202HBOR3       010HELBOR      ON      NM   R$  000000000030100000000003020000000000294000000000029700000000002990000000000298000000000029900536000000000000383100000000000114053500000000000000009999123100000010000000000000BRHBORACNOR3117
012024040202HBRE3       010HBR REALTY  ON      NM   R$  000000000061400000000006180000000000595000000000060500000000006160000000000616000000000061702392000000000000854400000000000517201600000000000000009999123100000010000000000000BRHBREACNOR4100
012024040202HBSA3       010HIDROVIAS   ON      NM   R$  000000000042800000000004410000000000427000000000043400000000004330000000000432000000000043407999000000000007297900000000003173443700000000000000009999123100000010000000000000BRHBSAACNOR0100
012024040202TEND3       010TENDA       ON      NM   R$  000000000125500000000013150000000001252000000000128000000000012830000000001283000000000129311811000000000004463900000000005716382600000000000000009999123100000010000000000000BRTENDACNOR4111
012024040202TFCO4       010TRACK FIELD PN  EJ  N2   R$  000000000118200000000012190000000001161000000000118800000000012190000000001190000000000122000795000000000000125100000000000148641900000000000000009999123100000010000000000000BRTFCOACNPR8112
012024040202TGMA3       010TEGMA       ON      NM   R$  000000000279200000000028000000000002747000000000277300000000027830000000002777000000000278401103000000000000218000000000000604538400000000000000009999123100000010000000000000BRTGMAACNOR7143
012024040202TIMS3       010TIM         ON  EJ  NM   R$  000000000178500000000017850000000001762000000000177100000000017800000000001777000000000178111581000000000008542600000000015134830700000000000000009999123100000010000000000000BRTIMSACNOR5115
012024040202TKNO4       010TEKNO       PN  EJ       R$  000000000689900000000068990000000006899000000000689900000000068990000000006100000000000735000001000000000000000100000000000000689900000000000000009999123100000010000000000000BRTKNOACNPR5075
012024040202TOTS3       010TOTVS       ON      NM   R$  000000000278700000000028190000000002728000000000277200000000027850000000002784000000000279715067000000000004202000000000011649279500000000000000009999123100000010000000000000BRTOTSACNOR8144
012024040202HYPE3       010HYPERA      ON  EJ  NM   R$  000000000322000000000032450000000003178000000000320800000000032000000000003195000000000320605105000000000001281100000000004109976900000000000000009999123100000010000000000000BRHYPEACNOR0139
012024040202JOPA3       010JOSAPAR     ON           R$  000000000212100000000021210000000002100000000000210500000000021000000000002133000000000230000003000000000000000900000000000001895200000000000000009999123100000010000000000000BRJOPAACNOR5134
012024040202JSLG3       010JSL         ON      NM   R$  000000000122700000000012270000000001188000000000120100000000011980000000001198000000000120500931000000000000194800000000000234065800000000000000009999123100000010000000000000BRJSLGACNOR2121
012024040202MYPK3       010IOCHP-MAXIONON      NM   R$  000000000141500000000014360000000001395000000000142200000000014360000000001424000000000143603977000000000000727400000000001034453400000000000000009999123100000010000000000000BRMYPKACNOR7154
012024040202USIM3       010USIMINAS    ON      N1   R$  000000000094900000000009630000000000942000000000095300000000009560000000000956000000000095701219000000000000386600000000000368628300000000000000009999123100000010000000000000BRUSIMACNOR3166
012024040202USIM5       010USIMINAS    PNA     N1   R$  000000000101100000000010320000000001005000000000102100000000010240000000001024000000000102511897000000000008852900000000009038877800000000000000009999123100000010000000000000BRUSIMACNPA6168
012024040202WEST3       010WESTWING    ON      NM   R$  000000000013200000000001320000000000126000000000012900000000001310000000000128000000000013100120000000000000069200000000000008929200000000000000009999123100000010000000000000BRWESTACNOR3100
012024040202WHRL3       010WHIRLPOOL   ON           R$  000000000045800000000004590000000000458000000000045800000000004590000000000455000000000045900003000000000000000400000000000000183500000000000000009999123100000010000000000000BRWHRLACNOR5128
012024040202WHRL4       010WHIRLPOOL   PN           R$  000000000046500000000004670000000000465000000000046500000000004670000000000466000000000046700008000000000000003900000000000001813900000000000000009999123100000010000000000000BRWHRLACNPR2128
012024040202WIZC3       010WIZ CO      ON      NM   R$  000000000073400000000007570000000000732000000000074500000000007490000000000745000000000074904327000000000000915900000000000682983500000000000000009999123100000010000000000000BRWIZCACNOR5101
012024040202WLMM4       010WLM IND COM PN           R$  000000000229700000000022970000000002246000000000226400000000022890000000002250000000000229700018000000000000002300000000000005207400000000000000009999123100000010000000000000BRWLMMACNPR3117
012024040202HAGA3       010HAGA S/A    ON           R$  000000000026600000000002660000000000266000000000026600000000002660000000000255000000000026400001000000000000000100000000000000026600000000000000009999123100000010000000000000BRHAGAACNOR7103
012024040202HAGA4       010HAGA S/A    PN           R$  000000000011600000000001180000000000115000000000011600000000001180000000000117000000000011800014000000000000003700000000000000431500000000000000009999123100000010000000000000BRHAGAACNPR4103
012024040202HAPV3       010HAPVIDA     ON      NM   R$  000000000039100000000003940000000000377000000000038400000000003890000000000388000000000039046776000000000058382600000000022432521700000000000000009999123100000010000000000000BRHAPVACNOR4113
012024040202JALL3       010JALLESMACHADON      NM   R$  000000000076400000000007660000000000748000000000075300000000007540000000000753000000000075402254000000000000524400000000000395158200000000000000009999123100000010000000000000BRJALLACNOR0105
012024040202JBSS3       010JBS         ON      NM   R$  000000000209000000000020950000000002056000000000207300000000020860000000002082000000000208615325000000000007043900000000014605157700000000000000009999123100000010000000000000BRJBSSACNOR8121
012024040202UCAS3       010UNICASA     ON      NM   R$  000000000026300000000002660000000000262000000000026300000000002650000000000261000000000026500074000000000000015200000000000004009200000000000000009999123100000010000000000000BRUCASACNOR1113
012024040202UGPA3       010ULTRAPAR    ON      NM   R$  000000000276200000000028290000000002707000000000277200000000028060000000002805000000000280721296000000000009615800000000026662075300000000000000009999123100000010000000000000BRUGPAACNOR8155
012024040202VVEO3       010VIVEO       ON      NM   R$  000000000064300000000006580000000000640000000000064800000000006500000000000646000000000065106383000000000001191700000000000772703300000000000000009999123100000010000000000000BRVVEOACNOR0103
012024040202KEPL3       010KEPLER WEBERON      NM   R$  000000000106000000000010650000000001051000000000105900000000010650000000001061000000000106603189000000000000911600000000000965607000000000000000009999123100000010000000000000BRKEPLACNOR1061
012024040202KLBN11      010KLABIN S/A  UNT     N2   R$  000000000250700000000025120000000002460000000000248700000000025090000000002508000000000250910795000000000003500300000000008706005600000000000000009999123100000010000000000000BRKLBNCDAM18140
012024040202KLBN3       010KLABIN S/A  ON      N2   R$  000000000050300000000005030000000000494000000000049700000000005020000000000502000000000050300614000000000000251800000000000125218100000000000000009999123100000010000000000000BRKLBNACNOR2168
012024040202KLBN4       010KLABIN S/A  PN      N2   R$  000000000049900000000005020000000000492000000000049700000000005020000000000500000000000050301681000000000000918100000000000456432300000000000000009999123100000010000000000000BRKLBNACNPR9168
012024040202MWET4       010WETZEL S/A  PN           R$  000000000055800000000005750000000000558000000000056800000000005750000000000575000000000058800004000000000000000500000000000000284100000000000000009999123100000010000000000000BRMWETACNPR3118
012024040202CAMB3       010CAMBUCI     ON           R$  000000000112000000000011300000000001090000000000110400000000011280000000001115000000000112800151000000000000030500000000000033672400000000000000009999123100000010000000000000BRCAMBACNOR4127
012024040202CAML3       010CAMIL       ON      NM   R$  000000000088400000000008870000000000864000000000087000000000008790000000000875000000000087902799000000000000467800000000000407093400000000000000009999123100000010000000000000BRCAMLACNOR3127
012024040202CASH3       010MELIUZ      ON  ER  NM   R$  000000000052400000000005370000000000511000000000052500000000005240000000000523000000000052709803000000000003426500000000001800824500000000000000009999123100000010000000000000BRCASHACNOR8106
012024040202ARZZ3       010AREZZO CO   ON      NM   R$  000000000625000000000062900000000006090000000000618400000000062620000000006259000000000627010087000000000001777300000000010990881900000000000000009999123100000010000000000000BRARZZACNOR3146
012024040202ASAI3       010ASSAI       ON      NM   R$  000000000142600000000014300000000001386000000000140800000000014020000000001402000000000140920782000000000014898200000000020979493800000000000000009999123100000010000000000000BRASAIACNOR0106
012024040202ATOM3       010ATOMPAR     ON           R$  000000000023700000000002380000000000213000000000021800000000002130000000000212000000000021300151000000000000107900000000000023626800000000000000009999123100000010000000000000BRATOMACNOR1106
012024040202AURE3       010AUREN       ON      NM   R$  000000000119500000000012070000000001190000000000119900000000012030000000001203000000000120404749000000000002593300000000003109728000000000000000009999123100000010000000000000BRAUREACNOR9104
012024040202BEEF3       010MINERVA     ON      NM   R$  000000000068800000000006920000000000681000000000068700000000006870000000000687000000000068809128000000000007208100000000004952126700000000000000009999123100000010000000000000BRBEEFACNOR6116
012024040202BEES3       010BANESTES    ON  EJ       R$  000000000085800000000008700000000000855000000000085900000000008700000000000865000000000087100081000000000000009400000000000008077300000000000000009999123100000010000000000000BRBEESACNOR9389
012024040202BEES4       010BANESTES    PN  EJ       R$  000000000098500000000009860000000000951000000000097500000000009510000000000950000000000099900019000000000000002700000000000002633800000000000000009999123100000010000000000000BRBEESACNPR6314
012024040202BRBI11      010BR PARTNERS UNT ED  N2   R$  000000000166000000000016600000000001623000000000163700000000016470000000001630000000000164901168000000000000167500000000000274333000000000000000009999123100000010000000000000BRBRBICDAM10108
012024040202BRFS3       010BRF SA      ON      NM   R$  000000000160000000000016140000000001575000000000159000000000015970000000001596000000000159713550000000000006488800000000010323338500000000000000009999123100000010000000000000BRBRFSACNOR8121
012024040202CSED3       010CRUZEIRO EDUON      NM   R$  000000000045900000000004640000000000441000000000045400000000004530000000000453000000000045601973000000000000571000000000000259240300000000000000009999123100000010000000000000BRCSEDACNOR9104
012024040202CSMG3       010COPASA      ON  EDJ NM   R$  000000000215800000000021660000000002119000000000213400000000021300000000002129000000000213007325000000000002820400000000006019620800000000000000009999123100000010000000000000BRCSMGACNOR5172
012024040202CSNA3       010SID NACIONALON           R$  000000000155900000000015590000000001517000000000153000000000015330000000001533000000000153418368000000000008907600000000013632745400000000000000009999123100000010000000000000BRCSNAACNOR6260
012024040202ENGI3       010ENERGISA    ON      N2   R$  000000000153000000000015370000000001513000000000152800000000015370000000001526000000000153800040000000000000005000000000000007641500000000000000009999123100000010000000000000BRENGIACNOR0145
012024040202ENGI4       010ENERGISA    PN      N2   R$  000000000080000000000008180000000000794000000000080500000000008180000000000805000000000082900050000000000000012700000000000010228400000000000000009999123100000010000000000000BRENGIACNPR7141
012024040202ENJU3       010ENJOEI      ON      NM   R$  000000000017800000000001910000000000177000000000018600000000001880000000000188000000000019001595000000000000857700000000000160060000000000000000009999123100000010000000000000BRENJUACNOR9100
012024040202EPAR3       010EMBPAR S/A  ON           R$  000000000081700000000008200000000000802000000000081500000000008190000000000803000000000081900029000000000000007100000000000005787800000000000000009999123100000010000000000000BREPARACNOR9104
012024040202EQPA3       010EQTL PARA   ON           R$  000000000075000000000007790000000000749000000000076400000000007570000000000754000000000077200037000000000000006600000000000005048400000000000000009999123100000010000000000000BREQPAACNOR1110
012024040202EQTL3       010EQUATORIAL  ON      NM   R$  000000000319900000000032410000000003169000000000321300000000032250000000003225000000000323517580000000000007631300000000024522954500000000000000009999123100000010000000000000BREQTLACNOR0129
012024040202ESPA3       010ESPACOLASER ON      NM   R$  000000000009800000000000990000000000096000000000009700000000000980000000000098000000000009900882000000000000511700000000000049973100000000000000009999123100000010000000000000BRESPAACNOR7103
012024040202ESTR4       010ESTRELA     PN           R$  000000000018400000000001840000000000184000000000018400000000001840000000000174000000000020000001000000000000000100000000000000018400000000000000009999123100000010000000000000BRESTRACNPR0144
012024040202EUCA3       010EUCATEX     ON      N1   R$  000000000168900000000016970000000001683000000000169300000000016830000000001675000000000168300009000000000000001300000000000002200900000000000000009999123100000010000000000000BREUCAACNOR1157
012024040202EUCA4       010EUCATEX     PN      N1   R$  000000000163000000000016540000000001598000000000161800000000016500000000001639000000000165200810000000000000173400000000000280722300000000000000009999123100000010000000000000BREUCAACNPR8044
012024040202PLPL3       010PLANOEPLANO ON      NM   R$  000000000135100000000013830000000001325000000000135800000000013750000000001375000000000138202163000000000000448600000000000609275400000000000000009999123100000010000000000000BRPLPLACNOR5104
012024040202PNVL3       010DIMED       ON      NM   R$  000000000118100000000012150000000001161000000000119300000000012090000000001199000000000120901968000000000000363200000000000433429000000000000000009999123100000010000000000000BRPNVLACNOR9205
012024040202RSUL4       010RIOSULENSE  PN           R$  000000000802900000000080290000000008023000000000802500000000080230000000007864000000000802400003000000000000000300000000000002407500000000000000009999123100000010000000000000BRRSULACNPR3113
012024040202CLSA3       010CLEARSALE   ON      NM   R$  000000000054100000000005530000000000522000000000054300000000005480000000000547000000000054805199000000000001725100000000000936803100000000000000009999123100000010000000000000BRCLSAACNOR0100
012024040202CLSC4       010CELESC      PN  EJ  N2   R$  000000000666800000000067010000000006667000000000669900000000067010000000006661000000000671700006000000000000003500000000000023446800000000000000009999123100000010000000000000BRCLSCACNPR3129
012024040202CMIG3       010CEMIG       ON  EJ  N1   R$  000000000148200000000014820000000001454000000000146400000000014670000000001466000000000147300690000000000000151900000000000222516300000000000000009999123100000010000000000000BRCMIGACNOR6240
012024040202CMIG4       010CEMIG       PN  EJ  N1   R$  000000000127400000000012780000000001260000000000126600000000012680000000001267000000000126816589000000000009281700000000011756095700000000000000009999123100000010000000000000BRCMIGACNPR3241
012024040202CMIN3       010CSNMINERACAOON      N2   R$  000000000053300000000005380000000000517000000000052600000000005280000000000527000000000052811020000000000010009900000000005274056200000000000000009999123100000010000000000000BRCMINACNOR2110
012024040202EALT4       010ACO ALTONA  PN           R$  000000000107100000000010740000000001057000000000106500000000010730000000001061000000000107200023000000000000003200000000000003408500000000000000009999123100000010000000000000BREALTACNPR1137
012024040202ECOR3       010ECORODOVIAS ON      NM   R$  000000000079200000000007940000000000775000000000078100000000007840000000000783000000000078612288000000000006201000000000004845620400000000000000009999123100000010000000000000BRECORACNOR8119
012024040202YDUQ3       010YDUQS PART  ON      NM   R$  000000000179000000000018120000000001707000000000174200000000017550000000001755000000000175817503000000000005462500000000009520685800000000000000009999123100000010000000000000BRYDUQACNOR3104
012024040202EGIE3       010ENGIE BRASILON      NM   R$  000000000395800000000040540000000003956000000000401100000000040540000000004054000000000405508018000000000002227800000000008936856900000000000000009999123100000010000000000000BREGIEACNOR9125
012024040202GRND3       010GRENDENE    ON      NM   R$  000000000066300000000006670000000000637000000000064700000000006410000000000640000000000064203515000000000001357000000000000878368600000000000000009999123100000010000000000000BRGRNDACNOR3172
012024040202PETZ3       010PETZ        ON      NM   R$  000000000041000000000004180000000000399000000000040800000000004080000000000408000000000040910361000000000012932400000000005288522000000000000000009999123100000010000000000000BRPETZACNOR2109
012024040202ROMI3       010ROMI        ON  EJB NM   R$  000000000127000000000012880000000001231000000000124200000000012340000000001233000000000124201755000000000000391300000000000486010900000000000000009999123100000010000000000000BRROMIACNOR8194
012024040202RRRP3       0103R PETROLEUMON      NM   R$  000000000351200000000035500000000003334000000000342900000000033340000000003333000000000333432782000000000012206300000000041864023900000000000000009999123100000010000000000000BRRRRPACNOR5102
012024040202TPIS3       010TRIUNFO PARTON      NM   R$  000000000039700000000003970000000000389000000000039300000000003920000000000392000000000039300057000000000000016800000000000006609400000000000000009999123100000010000000000000BRTPISACNOR8118
012024040202TRAD3       010TC          ON      NM   R$  000000000007400000000000760000000000070000000000007100000000000760000000000075000000000007600464000000000001836800000000000131716600000000000000009999123100000010000000000000BRTRADACNOR3101
012024040202TRIS3       010TRISUL      ON      NM   R$  000000000056700000000005670000000000542000000000055000000000005520000000000549000000000055302645000000000000747100000000000411149900000000000000009999123100000010000000000000BRTRISACNOR4116
012024040202TRPL3       010TRAN PAULISTON      N1   R$  000000000330700000000033380000000003307000000000332800000000033380000000003330000000000334000008000000000000001000000000000003328000000000000000009999123100000010000000000000BRTRPLACNOR4185
012024040202EVEN3       010EVEN        ON      NM   R$  000000000085000000000008530000000000828000000000084000000000008390000000000839000000000084405081000000000001476400000000001241357600000000000000009999123100000010000000000000BREVENACNOR8118
012024040202ITSA3       010ITAUSA      ON  EJ  N1   R$  000000000102800000000010280000000001014000000000101800000000010250000000001023000000000102500362000000000000112200000000000114307400000000000000009999123100000010000000000000BRITSAACNOR0439
012024040202ITSA4       010ITAUSA      PN  EJ  N1   R$  000000000102000000000010230000000001011000000000101600000000010180000000001018000000000101921210000000000016861800000000017146735100000000000000009999123100000010000000000000BRITSAACNPR7439
012024040202MATD3       010MATER DEI   ON      NM   R$  000000000056500000000005670000000000547000000000055600000000005600000000000559000000000056302363000000000000603400000000000335924200000000000000009999123100000010000000000000BRMATDACNOR4103
012024040202MBLY3       010MOBLY       ON      NM   R$  000000000021700000000002220000000000210000000000021800000000002210000000000219000000000022200712000000000000341700000000000074678300000000000000009999123100000010000000000000BRMBLYACNOR5100
012024040202MDIA3       010M.DIASBRANCOON      NM   R$  000000000379800000000037980000000003650000000000370700000000036990000000003699000000000370005782000000000001325000000000004912146500000000000000009999123100000010000000000000BRMDIAACNOR7134
012024040202MDNE3       010MOURA DUBEUXON      NM   R$  000000000130100000000013010000000001255000000000127800000000012990000000001291000000000130001543000000000000332600000000000425134400000000000000009999123100000010000000000000BRMDNEACNOR9100
012024040202MEAL3       010IMC S/A     ON      NM   R$  000000000017200000000001720000000000167000000000016900000000001690000000000169000000000017001642000000000001093300000000000185020700000000000000009999123100000010000000000000BRMEALACNOR9105
012024040202MELK3       010MELNICK     ON      NM   R$  000000000048400000000004950000000000484000000000049100000000004930000000000491000000000049301009000000000000286200000000000140752300000000000000009999123100000010000000000000BRMELKACNOR8110
012024040202MGEL4       010MANGELS INDLPN           R$  000000000170000000000017000000000001655000000000167600000000016550000000001640000000000168500009000000000000001500000000000002515300000000000000009999123100000010000000000000BRMGELACNPR3147
012024040202MGLU3       010MAGAZ LUIZA ON      NM   R$  000000000017700000000001780000000000172000000000017400000000001740000000000174000000000017533599000000000069627100000000012149333000000000000000009999123100000010000000000000BRMGLUACNOR2123
012024040202ALPA3       010ALPARGATAS  ON      N1   R$  000000000096300000000009650000000000946000000000095200000000009620000000000955000000000097500104000000000000039800000000000037900700000000000000009999123100000010000000000000BRALPAACNOR0231
012024040202ALPA4       010ALPARGATAS  PN      N1   R$  000000000092400000000009420000000000909000000000092500000000009350000000000935000000000093608708000000000003052400000000002825611300000000000000009999123100000010000000000000BRALPAACNPR7232
012024040202ALPK3       010ESTAPAR     ON      NM   R$  000000000044600000000004470000000000429000000000043300000000004350000000000434000000000043500531000000000000131400000000000056921500000000000000009999123100000010000000000000BRALPKACNOR9101
012024040202ALUP11      010ALUPAR      UNT     N2   R$  000000000307900000000030960000000003055000000000307600000000030750000000003074000000000307503559000000000000797100000000002451934800000000000000009999123100000010000000000000BRALUPCDAM15117
012024040202ALUP3       010ALUPAR      ON      N2   R$  000000000103500000000010400000000001031000000000103400000000010380000000001033000000000103800079000000000000012300000000000012729300000000000000009999123100000010000000000000BRALUPACNOR8117
012024040202ALUP4       010ALUPAR      PN      N2   R$  000000000102400000000010390000000001013000000000101900000000010250000000001024000000000103900134000000000000022200000000000022629200000000000000009999123100000010000000000000BRALUPACNPR5117
012024040202AMAR3       010LOJAS MARISAON      NM   R$  000000000018300000000001860000000000177000000000018000000000001800000000000180000000000018100985000000000000416400000000000075243400000000000000009999123100000010000000000000BRAMARACNOR4114
012024040202AMBP3       010AMBIPAR     ON      NM   R$  000000000139700000000014190000000001368000000000139100000000014060000000001406000000000140705421000000000001442100000000002006810000000000000000009999123100000010000000000000BRAMBPACNOR6103
012024040202ANIM3       010ANIMA       ON      NM   R$  000000000048500000000004910000000000470000000000048200000000004860000000000484000000000048707756000000000004292000000000002070098600000000000000009999123100000010000000000000BRANIMACNOR6107
012024040202BBSE3       010BBSEGURIDADEON      NM   R$  000000000326800000000032800000000003252000000000326300000000032670000000003265000000000326709805000000000005143600000000016786037900000000000000009999123100000010000000000000BRBBSEACNOR5124
012024040202BPAN4       010BANCO PAN   PN      N1   R$  000000000094200000000009490000000000931000000000093800000000009370000000000937000000000094103955000000000001611700000000001511898100000000000000009999123100000010000000000000BRBPANACNPR1115
012024040202GSHP3       010GENERALSHOPPON           R$  000000000109000000000010900000000001080000000000108200000000010800000000001080000000000130000003000000000000000400000000000000433100000000000000009999123100000010000000000000BRGSHPACNOR7102
012024040202GUAR3       010GUARARAPES  ON      NM   R$  000000000084000000000008730000000000825000000000085200000000008600000000000859000000000086507552000000000002819900000000002403082400000000000000009999123100000010000000000000BRGUARACNOR4172
012024040202BRAP3       010BRADESPAR   ON      N1   R$  000000000201500000000020380000000002006000000000201900000000020130000000002012000000000202100334000000000000052000000000000105024300000000000000009999123100000010000000000000BRBRAPACNOR5147
012024040202BRAP4       010BRADESPAR   PN      N1   R$  000000000208500000000021100000000002079000000000209300000000020930000000002092000000000209511086000000000004340600000000009086676600000000000000009999123100000010000000000000BRBRAPACNPR2147
012024040202CRFB3       010CARREFOUR BRON      NM   R$  000000000134100000000013430000000001311000000000131900000000013150000000001314000000000131808634000000000004637200000000006117081300000000000000009999123100000010000000000000BRCRFBACNOR2116
012024040202CRPG5       010CRISTAL     PNA          R$  000000000319700000000031970000000003121000000000315900000000031210000000003101000000000318200032000000000000004100000000000012953900000000000000009999123100000010000000000000BRCRPGACNPA3118
012024040202CRPG6       010CRISTAL     PNB          R$  000000000320100000000032010000000003134000000000315900000000031780000000003151000000000319600009000000000000000900000000000002843100000000000000009999123100000010000000000000BRCRPGACNPB1118
012024040202TRPL4       010TRAN PAULISTPN      N1   R$  000000000249000000000025120000000002478000000000250000000000025010000000002499000000000250413661000000000002787300000000006968688200000000000000009999123100000010000000000000BRTRPLACNPR1185
012024040202TTEN3       0103TENTOS     ON      NM   R$  000000000104900000000010490000000001023000000000103100000000010300000000001030000000000103804084000000000000715100000000000737906400000000000000009999123100000010000000000000BRTTENACNOR0103
012024040202TUPY3       010TUPY        ON      NM   R$  000000000274800000000027740000000002700000000000274100000000027690000000002756000000000276903155000000000000592400000000001623930900000000000000009999123100000010000000000000BRTUPYACNOR1183
012024040202CSAN3       010COSAN       ON      NM   R$  000000000158600000000015860000000001545000000000155900000000015450000000001545000000000154631318000000000012650700000000019734747600000000000000009999123100000010000000000000BRCSANACNOR6124
012024040202ENAT3       010ENAUTA PART ON      NM   R$  000000000284500000000028910000000002570000000000268100000000025730000000002573000000000257518190000000000007216500000000019350743600000000000000009999123100000010000000000000BRENATACNOR0104
012024040202ENEV3       010ENEVA       ON      NM   R$  000000000126600000000012780000000001254000000000126400000000012670000000001266000000000127013907000000000006962300000000008802898800000000000000009999123100000010000000000000BRENEVACNOR8105
012024040202ENGI11      010ENERGISA    UNT     N2   R$  000000000472300000000048290000000004684000000000475300000000047840000000004783000000000478510764000000000003026200000000014386412400000000000000009999123100000010000000000000BRENGICDAM16135
012024040202IFCM3       010INFRACOMM   ON      NM   R$  000000000009100000000000910000000000087000000000008800000000000870000000000087000000000008806677000000000009903000000000000877222000000000000000009999123100000010000000000000BRIFCMACNOR8101
012024040202IGTI11      010IGUATEMI S.AUNT     N1   R$  000000000229700000000023250000000002255000000000227600000000022940000000002294000000000229515715000000000003900200000000008879378400000000000000009999123100000010000000000000BRIGTICDAM16105
012024040202IGTI3       010IGUATEMI S.AON      N1   R$  000000000032900000000003290000000000318000000000032000000000003180000000000317000000000031800068000000000000026500000000000008503200000000000000009999123100000010000000000000BRIGTIACNOR8105
012024040202IGTI4       010IGUATEMI S.APN      N1   R$  000000000096500000000009650000000000965000000000096500000000009650000000000952000000000098400001000000000000000100000000000000096500000000000000009999123100000010000000000000BRIGTIACNPR5105
012024040202INEP3       010INEPAR      ON           R$  000000000033500000000003420000000000325000000000033100000000003350000000000328000000000033600284000000000000087800000000000029147000000000000000009999123100000010000000000000BRINEPACNOR1143
012024040202INEP4       010INEPAR      PN           R$  000000000027500000000002940000000000275000000000028600000000002890000000000289000000000029100180000000000000047100000000000013496900000000000000009999123100000010000000000000BRINEPACNPR8143
012024040202INTB3       010INTELBRAS   ON  EJ  NM   R$  000000000207800000000020780000000002015000000000205800000000020750000000002075000000000207801836000000000000716500000000001475223200000000000000009999123100000010000000000000BRINTBACNOR9111
012024040202IRBR3       010IRBBRASIL REON      NM   R$  000000000383300000000038610000000003774000000000381300000000038150000000003814000000000381904814000000000001177500000000004490076700000000000000009999123100000010000000000000BRIRBRACNOR4111
012024040202LUPA3       010LUPATECH    ON      NM   R$  000000000018000000000001860000000000176000000000018000000000001810000000000181000000000018200637000000000000364700000000000065926600000000000000009999123100000010000000000000BRLUPAACNOR8112
012024040202LVTC3       010WDC NETWORKSON      NM   R$  000000000037900000000003800000000000377000000000037800000000003800000000000376000000000038000051000000000000015200000000000005749900000000000000009999123100000010000000000000BRLVTCACNOR4102
012024040202LWSA3       010LWSA        ON      NM   R$  000000000054000000000005440000000000529000000000053600000000005380000000000537000000000053908831000000000008347700000000004478805400000000000000009999123100000010000000000000BRLWSAACNOR8103
012024040202PDGR3       010PDG REALT   ON      NM   R$  000000000003200000000000320000000000029000000000003000000000000310000000000030000000000003100581000000000004514100000000000138100700000000000000009999123100000010000000000000BRPDGRACNOR8118
012024040202PDTC3       010PADTEC      ON      NM   R$  000000000026500000000002670000000000259000000000026000000000002600000000000258000000000026000135000000000000062800000000000016370600000000000000009999123100000010000000000000BRPDTCACNOR3100
012024040202PEAB4       010PAR AL BAHIAPN  ED       R$  000000000445000000000044500000000004450000000000445000000000044500000000004420000000000468600003000000000000000400000000000001780000000000000000009999123100000010000000000000BRPEABACNPR0132
012024040202PETR3       010PETROBRAS   ON      N2   R$  000000000387600000000039690000000003866000000000393300000000039610000000003960000000000396327940000000000012953900000000050953689200000000000000009999123100000010000000000000BRPETRACNOR9202
012024040202PETR4       010PETROBRAS   PN      N2   R$  000000000378200000000038650000000003777000000000382500000000038620000000003861000000000386393178000000000045930700000000175729038300000000000000009999123100000010000000000000BRPETRACNPR6210
012024040202AERI3       010AERIS       ON      NM   R$  000000000005600000000000620000000000055000000000005800000000000620000000000061000000000006205101000000000005115500000000000297503000000000000000009999123100000010000000000000BRAERIACNOR4101
012024040202AESB3       010AES BRASIL  ON      NM   R$  000000000096800000000009750000000000945000000000095700000000009720000000000968000000000097309762000000000002825400000000002706440600000000000000009999123100000010000000000000BRAESBACNOR7105
012024040202AGRO3       010BRASILAGRO  ON      NM   R$  000000000251100000000025180000000002482000000000249800000000024840000000002484000000000249501526000000000000208600000000000521266600000000000000009999123100000010000000000000BRAGROACNOR7114
012024040202AGXY3       010AGROGALAXY  ON      NM   R$  000000000023000000000002620000000000227000000000024900000000002500000000000250000000000025102061000000000001806100000000000449983700000000000000009999123100000010000000000000BRAGXYACNOR4102
012024040202ALLD3       010ALLIED      ON      NM   R$  000000000092700000000009550000000000927000000000094200000000009500000000000948000000000095000181000000000000056000000000000052792900000000000000009999123100000010000000000000BRALLDACNOR3105
012024040202ALOS3       010ALLOS       ON      NM   R$  000000000236700000000023830000000002333000000000235900000000023690000000002369000000000237211995000000000003750200000000008848609500000000000000009999123100000010000000000000BRALOSACNOR5100
012024040202BPAC11      010BTGP BANCO  UNT     N2   R$  000000000355100000000035700000000003477000000000351800000000035480000000003548000000000355523381000000000011868800000000041759921800000000000000009999123100000010000000000000BRBPACUNT006118
012024040202BPAC3       010BTGP BANCO  ON      N2   R$  000000000171500000000017410000000001692000000000171000000000017410000000001713000000000176700055000000000000007000000000000011972600000000000000009999123100000010000000000000BRBPACACNOR7133
012024040202BPAC5       010BTGP BANCO  PNA     N2   R$  000000000089500000000009170000000000888000000000090000000000009150000000000907000000000091700043000000000000007300000000000006571900000000000000009999123100000010000000000000BRBPACACNPA0133
012024040202CPFE3       010CPFL ENERGIAON      NM   R$  000000000347000000000035050000000003434000000000347700000000034990000000003495000000000350006476000000000001666900000000005797258800000000000000009999123100000010000000000000BRCPFEACNOR0136
012024040202CPLE3       010COPEL       ON      N2   R$  000000000084800000000008580000000000839000000000085100000000008560000000000856000000000085806844000000000016705700000000014231620500000000000000009999123100000010000000000000BRCPLEACNOR8148
012024040202CPLE5       010COPEL       PNA     N2   R$  000000000200000000000020000000000002000000000000200000000000020000000000002000000000000214500001000000000000000200000000000000400000000000000000009999123100000010000000000000BRCPLEACNPA1146
012024040202CPLE6       010COPEL       PNB     N2   R$  000000000095100000000009600000000000939000000000094900000000009580000000000957000000000095821265000000000015055400000000014301456600000000000000009999123100000010000000000000BRCPLEACNPB9145
012024040202ELMD3       010ELETROMIDIA ON      NM   R$  000000000189000000000018990000000001864000000000187900000000018680000000001867000000000186800666000000000000165700000000000311479500000000000000009999123100000010000000000000BRELMDACNOR3100
012024040202EMAE4       010EMAE        PN           R$  000000000705000000000071000000000006902000000000701200000000071000000000006900000000000710000017000000000000002200000000000015426400000000000000009999123100000010000000000000BREMAEACNPR1124
012024040202EMBR3       010EMBRAER     ON      NM   R$  000000000324700000000033060000000003207000000000326600000000032750000000003273000000000327618136000000000006586500000000021511546700000000000000009999123100000010000000000000BREMBRACNOR4191
012024040202DASA3       010DASA        ON      NM   R$  000000000059000000000005900000000000565000000000057300000000005800000000000578000000000058002185000000000000432400000000000248120900000000000000009999123100000010000000000000BRDASAACNOR1122
012024040202DESK3       010DESKTOP     ON      NM   R$  000000000154000000000015400000000001402000000000147200000000014800000000001480000000000149101986000000000000363700000000000535729700000000000000009999123100000010000000000000BRDESKACNOR2103
012024040202KRSA3       010KORA SAUDE  ON      NM   R$  000000000008100000000000840000000000080000000000008000000000000800000000000079000000000008103096000000000001201700000000000097245900000000000000009999123100000010000000000000BRKRSAACNOR0100
012024040202DEXP3       010DEXXOS PAR  ON      N1   R$  000000000113500000000011450000000001116000000000112900000000011240000000001124000000000113100398000000000000077500000000000087529800000000000000009999123100000010000000000000BRDEXPACNOR1104
012024040202DEXP4       010DEXXOS PAR  PN      N1   R$  000000000112500000000011330000000001102000000000111000000000011100000000001110000000000114300012000000000000002900000000000003219000000000000000009999123100000010000000000000BRDEXPACNPR8104
012024040202DIRR3       010DIRECIONAL  ON      NM   R$  000000000250700000000025600000000002445000000000251200000000025440000000002544000000000255116920000000000003495400000000008782351500000000000000009999123100000010000000000000BRDIRRACNOR0117
012024040202DMVF3       010D1000VFARMA ON      NM   R$  000000000067000000000006800000000000666000000000067300000000006800000000000674000000000068000264000000000000065800000000000044347200000000000000009999123100000010000000000000BRDMVFACNOR9100
012024040202DOTZ3       010DOTZ SA     ON      NM   R$  000000000055200000000005590000000000539000000000054500000000005450000000000541000000000054900035000000000000008800000000000004802900000000000000009999123100000010000000000000BRDOTZACNOR7101
012024040202FESA3       010FERBASA     ON      N1   R$  000000000159000000000015900000000001585000000000158800000000015900000000001559000000000159200007000000000000001200000000000001906300000000000000009999123100000010000000000000BRFESAACNOR8187
012024040202LAND3       010TERRASANTAPAON      NM   R$  000000000144600000000014660000000001393000000000143700000000014060000000001406000000000141800731000000000000212900000000000306017700000000000000009999123100000010000000000000BRLANDACNOR9102
012024040202LAVV3       010LAVVI       ON      NM   R$  000000000093900000000009540000000000913000000000093200000000009400000000000939000000000094903482000000000001236500000000001153129300000000000000009999123100000010000000000000BRLAVVACNOR4111
012024040202LEVE3       010METAL LEVE  ON      NM   R$  000000000339900000000034450000000003331000000000336700000000033610000000003360000000000336802446000000000000588500000000001982023100000000000000009999123100000010000000000000BRLEVEACNOR2196
012024040202LIPR3       010ELETROPAR   ON           R$  000000000535000000000053500000000004923000000000501100000000049400000000004600000000000505000009000000000000000900000000000004510300000000000000009999123100000010000000000000BRLIPRACNOR7121
012024040202LJQQ3       010QUERO-QUERO ON      NM   R$  000000000057200000000005790000000000544000000000056300000000005730000000000572000000000057406645000000000002171400000000001223162000000000000000009999123100000010000000000000BRLJQQACNOR5104
012024040202LOGG3       010LOG COM PROPON      NM   R$  000000000218400000000022210000000002136000000000218100000000022070000000002207000000000221701497000000000000206900000000000451350100000000000000009999123100000010000000000000BRLOGGACNOR7107
012024040202LOGN3       010LOG-IN      ON      NM   R$  000000000346100000000034610000000003150000000000328200000000033550000000003355000000000339001138000000000000181400000000000595507500000000000000009999123100000010000000000000BRLOGNACNOR3105
012024040202LPSB3       010LOPES BRASILON      NM   R$  000000000022100000000002210000000000206000000000021300000000002170000000000216000000000021700658000000000000415000000000000088786900000000000000009999123100000010000000000000BRLPSBACNOR0113
012024040202LREN3       010LOJAS RENNERON      NM   R$  000000000168400000000017620000000001684000000000173600000000017480000000001748000000000175034955000000000018990000000000032978712300000000000000009999123100000010000000000000BRLRENACNOR1220
012024040202FESA4       010FERBASA     PN      N1   R$  000000000085000000000008570000000000839000000000084800000000008540000000000853000000000085503575000000000000774600000000000656997100000000000000009999123100000010000000000000BRFESAACNPR5083
012024040202FHER3       010FER HERINGERON      NM   R$  000000000056100000000005690000000000561000000000056100000000005620000000000561000000000056700020000000000000004500000000000002527800000000000000009999123100000010000000000000BRFHERACNOR5103
012024040202FIEI3       010FICA        ON           R$  000000000120000000000012000000000001200000000000120000000000012000000000000000000000000125000007000000000000002300000000000002760000000000000000009999123100000010000000000000BRFIEIACNOR2100
012024040202FIQE3       010UNIFIQUE    ON      NM   R$  000000000040500000000004070000000000396000000000039800000000003970000000000397000000000039901320000000000000479600000000000191274400000000000000009999123100000010000000000000BRFIQEACNOR5106
012024040202FLRY3       010FLEURY      ON      NM   R$  000000000148800000000014880000000001468000000000147700000000014860000000001485000000000148804990000000000002023900000000002990123300000000000000009999123100000010000000000000BRFLRYACNOR5138
012024040202ODPV3       010ODONTOPREV  ON  EJ  NM   R$  000000000121200000000012220000000001188000000000120000000000012040000000001200000000000120504539000000000001639600000000001968657200000000000000009999123100000010000000000000BRODPVACNOR4199
012024040202OFSA3       010OUROFINO S/AON      NM   R$  000000000249900000000025440000000002465000000000247500000000024700000000002470000000000254900040000000000000007300000000000018070100000000000000009999123100000010000000000000BROFSAACNOR7117
012024040202ONCO3       010ONCOCLINICASON      NM   R$  000000000084800000000008600000000000792000000000081400000000007920000000000792000000000079327752000000000009550900000000007781101600000000000000009999123100000010000000000000BRONCOACNOR6100
012024040202OPCT3       010OCEANPACT   ON      NM   R$  000000000059700000000006000000000000587000000000059400000000005920000000000591000000000059201053000000000000373300000000000221804900000000000000009999123100000010000000000000BROPCTACNOR0100
012024040202ORVR3       010ORIZON      ON      NM   R$  000000000373200000000038000000000003690000000000375400000000037840000000003784000000000379902786000000000000443300000000001664569100000000000000009999123100000010000000000000BRORVRACNOR0101
012024040202NEOE3       010NEOENERGIA  ON      NM   R$  000000000204000000000020400000000002003000000000201600000000020300000000002030000000000203505627000000000001517300000000003059119700000000000000009999123100000010000000000000BRNEOEACNOR3121
012024040202NGRD3       010NEOGRID     ON      NM   R$  000000000010700000000001080000000000105000000000010600000000001080000000000107000000000010800531000000000000357800000000000038122500000000000000009999123100000010000000000000BRNGRDACNOR3103
012024040202NINJ3       010GETNINJAS   ON      NM   R$  000000000051000000000005130000000000510000000000051100000000005130000000000511000000000051300097000000000000017700000000000009056800000000000000009999123100000010000000000000BRNINJACNOR5101
012024040202NTCO3       010GRUPO NATURAON      NM   R$  000000000172800000000017470000000001689000000000172000000000017240000000001724000000000173520104000000000008338000000000014341847600000000000000009999123100000010000000000000BRNTCOACNOR5105
012024040202RAIL3       010RUMO S.A.   ON      NM   R$  000000000219900000000022520000000002191000000000223500000000022520000000002247000000000225323563000000000011875400000000026548505200000000000000009999123100000010000000000000BRRAILACNOR9104
012024040202RAIZ4       010RAIZEN      PN  ED  N2   R$  000000000033600000000003360000000000330000000000033200000000003340000000000333000000000033424979000000000015309000000000005093167100000000000000009999123100000010000000000000BRRAIZACNPR6110
012024040202SNSY3       010SANSUY      ON           R$  000000000105000000000010700000000001000000000000104900000000010370000000001000000000000103700018000000000000003600000000000003778700000000000000009999123100000010000000000000BRSNSYACNOR2113
012024040202SNSY5       010SANSUY      PNA          R$  000000000065000000000006600000000000634000000000065700000000006500000000000633000000000065900031000000000000016300000000000010718200000000000000009999123100000010000000000000BRSNSYACNPA5111
012024040202SOJA3       010BOA SAFRA   ON      NM   R$  000000000182900000000018670000000001810000000000184100000000018670000000001850000000000186801724000000000000321900000000000592647900000000000000009999123100000010000000000000BRSOJAACNOR9105
012024040202SOMA3       010GRUPO SOMA  ON      NM   R$  000000000073400000000007510000000000720000000000073300000000007440000000000743000000000074512025000000000008987000000000006590907100000000000000009999123100000010000000000000BRSOMAACNOR3102
012024040202SRNA3       010SERENA      ON      NM   R$  000000000092700000000009690000000000920000000000094600000000009630000000000957000000000096305534000000000002089400000000001977844300000000000000009999123100000010000000000000BRSRNAACNOR4100
012024040202STBP3       010SANTOS BRP  ON  ED  NM   R$  000000000129900000000013190000000001282000000000130000000000013190000000001314000000000132014086000000000004353000000000005662844600000000000000009999123100000010000000000000BRSTBPACNOR3129
012024040202SUZB3       010SUZANO S.A. ON      NM   R$  000000000646200000000065510000000006430000000000649800000000065230000000006515000000000652324894000000000006264500000000040709958500000000000000009999123100000010000000000000BRSUZBACNOR0129
012024040202PTBL3       010PORTOBELLO  ON      NM   R$  000000000068000000000006920000000000657000000000067800000000006920000000000683000000000069201838000000000000573600000000000389293600000000000000009999123100000010000000000000BRPTBLACNOR8132
012024040202PTNT3       010PETTENATI   ON           R$  000000000122100000000012400000000001205000000000122200000000012400000000001202000000000127000004000000000000000400000000000000489100000000000000009999123100000010000000000000BRPTNTACNOR6042
012024040202PTNT4       010PETTENATI   PN           R$  000000000077700000000007770000000000758000000000076400000000007650000000000757000000000076600014000000000000006000000000000004585700000000000000009999123100000010000000000000BRPTNTACNPR3047
012024040202QUAL3       010QUALICORP   ON      NM   R$  000000000018400000000001930000000000177000000000018300000000001770000000000177000000000017806954000000000009517700000000001742362900000000000000009999123100000010000000000000BRQUALACNOR6119
012024040202RADL3       010RAIADROGASILON      NM   R$  000000000267300000000026740000000002632000000000265300000000026590000000002658000000000266014213000000000004358400000000011564982100000000000000009999123100000010000000000000BRRADLACNOR0154
012024040202SMFT3       010SMART FIT   ON      NM   R$  000000000256700000000026460000000002567000000000261100000000026250000000002625000000000264007670000000000002456900000000006415720100000000000000009999123100000010000000000000BRSMFTACNOR1111
012024040202SMTO3       010SAO MARTINHOON      NM   R$  000000000301900000000030350000000002945000000000300300000000030350000000003032000000000303606022000000000001320800000000003967364600000000000000009999123100000010000000000000BRSMTOACNOR3125
012024040202PRNR3       010PRINER      ON      NM   R$  000000000118300000000011920000000001166000000000117600000000011750000000001174000000000117901645000000000000463900000000000545720400000000000000009999123100000010000000000000BRPRNRACNOR4108
012024040202PSSA3       010PORTO SEGUROON  EDJ NM   R$  000000000307500000000031340000000003073000000000311000000000031200000000003118000000000312806994000000000001572700000000004891162200000000000000009999123100000010000000000000BRPSSAACNOR7154
012024040202GEPA4       010GER PARANAP PN           R$  000000000262900000000027000000000002629000000000268700000000026950000000002695000000000270000015000000000000002300000000000006181300000000000000009999123100000010000000000000BRGEPAACNPR9159
012024040202FRAS3       010FRAS-LE     ON      N1   R$  000000000176600000000017770000000001734000000000175900000000017680000000001766000000000177801590000000000000598700000000001053449200000000000000009999123100000010000000000000BRFRASACNOR0158
012024040202ITUB3       010ITAUUNIBANCOON  EJ  N1   R$  000000000290300000000029030000000002874000000000288600000000028930000000002890000000000289301389000000000000413300000000001193006400000000000000009999123100000010000000000000BRITUBACNOR4334
012024040202ITUB4       010ITAUUNIBANCOPN  EJ  N1   R$  000000000334500000000033560000000003314000000000333300000000033480000000003343000000000334832927000000000018086200000000060297525900000000000000009999123100000010000000000000BRITUBACNPR1334
012024040202APER3       010ALPER S.A.  ON           R$  000000000430300000000043030000000004303000000000430300000000043030000000004302000000000438000002000000000000000200000000000000860600000000000000009999123100000010000000000000BRAPERACNOR9106
012024040202ARML3       010ARMAC       ON      NM   R$  000000000120600000000012060000000001170000000000117900000000011800000000001178000000000118004950000000000000761000000000000897626300000000000000009999123100000010000000000000BRARMLACNOR1110
012024040207TXRX3       010TEX RENAUX  ON           R$  000000000080000000000008000000000000800000000000080000000000008000000000000200000000000109900001000000000000000100000000000000080000000000000000009999123100000010000000000000BRTXRXACNOR3142
012024040207TXRX4       010TEX RENAUX  PN           R$  000000000026400000000002640000000000264000000000026400000000002640000000000249000000000026300001000000000000000400000000000000105600000000000000009999123100000010000000000000BRTXRXACNPR0142
012024040207NUTR3       010NUTRIPLANT  ON      MA   R$  000000000054000000000005400000000000530000000000053400000000005360000000000531000000000053700019000000000000002400000000000001283900000000000000009999123100000010000000000000BRNUTRACNOR0104
012024040208RNEW11      010RENOVA      UNT     N2   R$  000000000035900000000003590000000000349000000000035300000000003570000000000347000000000035800009000000000000002400000000000000847200000000000000009999123100000010000000000000BRRNEWCDAM15110
012024040208RNEW3       010RENOVA      ON      N2   R$  000000000011800000000001190000000000113000000000011600000000001160000000000115000000000011600122000000000000085800000000000009981400000000000000009999123100000010000000000000BRRNEWACNOR8110
012024040208RNEW4       010RENOVA      PN      N2   R$  000000000011600000000001180000000000114000000000011500000000001150000000000114000000000011500165000000000000116700000000000013482400000000000000009999123100000010000000000000BRRNEWACNPR5110
012024040208HOOT4       010HOTEIS OTHONPN           R$  000000000027900000000002860000000000279000000000027900000000002790000000000279000000000028400019000000000000004500000000000001256200000000000000009999123100000010000000000000BRHOOTACNPR9015
012024040208JFEN3       010JOAO FORTES ON           R$  000000000020400000000002200000000000196000000000020500000000001980000000000197000000000020000105000000000000039600000000000008134500000000000000009999123100000010000000000000BRJFENACNOR0058
012024040208ATMP3       010ATMASA      ON           R$  000000000020300000000002030000000000190000000000019400000000001910000000000190000000000019400038000000000000011600000000000002254400000000000000009999123100000010000000000000BRATMPACNOR8100
012024040208BDLL4       010BARDELLA    PN           R$  000000000068200000000007690000000000675000000000074300000000007690000000000667000000000078500009000000000000001400000000000001040500000000000000009999123100000010000000000000BRBDLLACNPR8151
012024040208ETER3       010ETERNIT     ON      NM   R$  000000000071600000000007410000000000711000000000072600000000007400000000000735000000000074000667000000000000175300000000000127288900000000000000009999123100000010000000000000BRETERACNOR3243
012024040208PMAM3       010PARANAPANEMAON      NM   R$  000000000033100000000003390000000000331000000000033200000000003310000000000331000000000033400181000000000000035000000000000011642900000000000000009999123100000010000000000000BRPMAMACNOR3038
012024040208RSID3       010ROSSI RESID ON      NM   R$  000000000039300000000003960000000000370000000000037800000000003700000000000365000000000037000139000000000000031900000000000012058900000000000000009999123100000010000000000000BRRSIDACNOR8120
012024040208RPMG3       010PET MANGUINHON           R$  000000000020600000000002080000000000205000000000020600000000002060000000000206000000000020800010000000000000002600000000000000535800000000000000009999123100000010000000000000BRRPMGACNOR9194
012024040208AMER3       010AMERICANAS  ON      NM   R$  000000000006100000000000620000000000057000000000005900000000000590000000000059000000000006002518000000000012645300000000000747413100000000000000009999123100000010000000000000BRAMERACNOR6101
012024040208LIGT3       010LIGHT S/A   ON      NM   R$  000000000051000000000005290000000000501000000000051600000000005190000000000518000000000052103161000000000001054300000000000545002200000000000000009999123100000010000000000000BRLIGTACNOR2124
012024040208OIBR3       010OI          ON      N1   R$  000000000006500000000000660000000000064000000000006400000000000650000000000064000000000006502342000000000005751600000000000373259200000000000000009999123100000010000000000000BROIBRACNOR1110
012024040208OIBR4       010OI          PN      N1   R$  000000000018600000000001890000000000181000000000018300000000001860000000000181000000000018600290000000000000052900000000000009721600000000000000009999123100000010000000000000BROIBRACNPR8109
012024040208OSXB3       010OSX BRASIL  ON      NM   R$  000000000041600000000004190000000000406000000000041100000000004130000000000409000000000041000011000000000000001800000000000000739800000000000000009999123100000010000000000000BROSXBACNOR8109
012024040208NEXP3       010NEXPE       ON      NM   R$  000000000046000000000004600000000000452000000000045700000000004580000000000451000000000045900006000000000000000900000000000000411600000000000000009999123100000010000000000000BRNEXPACNOR0101
012024040210BGIP2       010BANESE      DIR PRE      R$  000000000000500000000001040000000000005000000000005300000000001040000000000104000000000000000037000000000000008000000000000000425300000000000000009999123100000010000000000000BRBGIPD07PR0207
012024040210ABCB10      010ABC BRASIL  PN  REC N2   R$  000000000254000000000025400000000002485000000000251200000000024850000000002000000000000254000002000000000000000200000000000000502500000000000000009999123100000010000000000000BRABCBR19PR1144
012024040210DMFN1       010DMFINANCEIRADIR ORD      R$  000000000001900000000000190000000000011000000000001500000000000180000000000012000000000002000020000000000000003300000000000000052600000000000000009999123100000010000000000000BRDMFND01OR1101
012024040210GFSA1       010GAFISA      DIR ORD NM   R$  000000000000300000000000040000000000003000000000000300000000000030000000000003000000000000400119000000000000885000000000000002783300000000000000009999123100000010000000000000BRGFSAD10OR9123
012024040212RECX11      010FII REC FOF CI           R$  000000000670200000000067020000000006702000000000670200000000067020000000006701000000000689800001000000000000000001000000000000006702000000000000009999123100000010000000000000BRRECXCTF002136
012024040212RELG11      010FII REC LOG CI           R$  000000000515800000000054200000000005105000000000523900000000053900000000005311000000000539000537000000000000001503000000000007874535000000000000009999123100000010000000000000BRRELGCTF008132
012024040212RFOF11      010FII RB CFOF CI  ER       R$  000000000778000000000077960000000007772000000000778700000000077900000000007790000000000779200032000000000000000441000000000003434152000000000000009999123100000010000000000000BRRFOFCTF001149
012024040212RINV11      010FII REAL INVCI  ER       R$  000000001120000000000112250000000011191000000001121000000000112060000000011206000000001129000122000000000000002733000000000030638008000000000000009999123100000010000000000000BRRINVCTF004116
012024040212RMAI11      010FII REAGMULTCI  ER       R$  000000000705500000000070550000000007055000000000705500000000070550000000006301000000000705500100000000000000000100000000000000705500000000000000009999123100000010000000000000BRRMAICTF000132
012024040212RNDP11      010FII BB R PAPCI  ER       R$  000000001080800000000108080000000010700000000001080600000000108070000000010700000000001080700024000000000000000232000000000002507049000000000000009999123100000010000000000000BRRNDPCTF007246
012024040212RNGO11      010FII RIONEGROCI  ER       R$  000000000485400000000048990000000004832000000000484900000000048320000000004840000000000485400110000000000000000949000000000004602166000000000000009999123100000010000000000000BRRNGOCTF003241
012024040212VIUR11      010FII VINCI IUCI  ER       R$  000000000074300000000007550000000000741000000000074800000000007520000000000747000000000075201139000000000000046405000000000034715343000000000000009999123100000010000000000000BRVIURCTF009135
012024040212VOTS11      010FII V MASTERCI  ER       R$  000000000889100000000088910000000008149000000000854800000000083050000000008151000000000830300020000000000000000237000000000002025934000000000000009999123100000010000000000000BRVOTSCTF007168
012024040212VRTA11      010FII FATOR VECI  ER       R$  000000000890000000000089400000000008796000000000887600000000088630000000008863000000000889002183000000000000023919000000000212309001000000000000009999123100000010000000000000BRVRTACTF008258
012024040212VRTM11      010FII VRTM    CI  ER       R$  000000000102500000000010250000000001020000000000102000000000010200000000001020000000000102500007000000000000000315000000000000321380000000000000009999123100000010000000000000BRVRTMCTF003105
012024040212VSHO11      010FII VOT SHOPCI  ER       R$  000000000810800000000081990000000008054000000000810200000000080550000000008054000000000810000101000000000000000581000000000004707430000000000000009999123100000010000000000000BRVSHOCTF002159
012024040212VSLH11      010FII VERS CRICI           R$  000000000036500000000003650000000000361000000000036300000000003630000000000362000000000036302831000000000000043716000000000015874836000000000000009999123100000010000000000000BRVSLHCTF008140
012024040212VTLT11      010FII VOT LOG CI  ER       R$  000000000977500000000097750000000009603000000000968300000000096840000000009667000000000970300199000000000000000995000000000009634894000000000000009999123100000010000000000000BRVTLTCTF001170
012024040212RBVO11      010FII RIOBCRI2CI  ERA      R$  000000000159400000000016230000000001550000000000160000000000015610000000001561000000000162000217000000000000005778000000000009247896000000000000009999123100000010000000000000BRRBVOCTF007241
012024040212RCFA11      010FII GP RCFA CI           R$  000000000011700000000001260000000000117000000000012300000000001240000000000114000000000012300030000000000000000079000000000000009786000000000000009999123100000010000000000000BRRCFACTF007101
012024040212RCRB11      010FII RIOB RC CI           R$  000000001614000000000161920000000015986000000001610400000000161260000000016106000000001612600680000000000000003440000000000055400190000000000000009999123100000010000000000000BRRCRBCTF000154
012024040212RECR11      010FII REC RECECI           R$  000000000889500000000089280000000008878000000000890200000000089190000000008919000000000892003339000000000000026750000000000238145411000000000000009999123100000010000000000000BRRECRCTF004148
012024040212RECT11      010FII REC RENDCI           R$  000000000424600000000042460000000004210000000000423100000000042390000000004239000000000424000612000000000000007827000000000033116476000000000000009999123100000010000000000000BRRECTCTF000164
012024040212RBDS11      010FII RBRESID2CI           R$  000000000022600000000002260000000000225000000000022500000000002250000000000219000000000022900005000000000000000194000000000000043812000000000000009999123100000010000000000000BRRBDSCTF006179
012024040212RBED11      010FII RIOB ED CI  ER       R$  000000001423000000000142570000000014049000000001410700000000140900000000014100000000001419900256000000000000002667000000000037625585000000000000009999123100000010000000000000BRRBEDCTF006162
012024040212RBFF11      010FII RIOB FF CI  ER       R$  000000000617800000000062160000000006178000000000619900000000062120000000006196000000000621200788000000000000003607000000000022360902000000000000009999123100000010000000000000BRRBFFCTF008158
012024040212RBHG11      010FII RBCRI IVCI  ER       R$  000000000901000000000090200000000008953000000000899000000000090200000000008976000000000901801496000000000000005544000000000049842578000000000000009999123100000010000000000000BRRBHGCTF002132
012024040212MINT11      010FII MINT EDUCI           R$  000000000925000000000096990000000009211000000000922700000000096990000000009251000000000968800003000000000000000098000000000000904336000000000000009999123100000010000000000000BRMINTCTF009103
012024040212BICR11      010FII INTER   CI  ER       R$  000000000499900000000050000000000004939000000000498900000000049390000000004901000000000493900006000000000000000029000000000000144692000000000000009999123100000010000000000000BRBICRCTF009150
012024040212SCPF11      010FII SCP     CI           R$  000000000039200000000003940000000000390000000000039200000000003910000000000392000000000039300049000000000000000588000000000000230673000000000000009999123100000010000000000000BRSCPFCTF003302
012024040212SEQR11      010FII SEQUOIA CI           R$  000000000569500000000057080000000005671000000000568500000000056800000000005678000000000568000109000000000000000842000000000004787203000000000000009999123100000010000000000000BRSEQRCTF002140
012024040212SHPH11      010FII HIGIENOPCI  ER       R$  000000008810100000000885000000000088100000000008813000000000885000000000088300000000008850000010000000000000000033000000000002908305000000000000009999123100000010000000000000BRSHPHCTF008348
012024040212DVFF11      010FII DEVA FOFCI           R$  000000000079800000000007990000000000794000000000079700000000007960000000000796000000000079900052000000000000003263000000000002602156000000000000009999123100000010000000000000BRDVFFCTF006135
012024040212GGRC11      010FII GGRCOVEPCI  ER       R$  000000000114300000000011580000000001135000000000114900000000011440000000001143000000000114404662000000000000294152000000000338092919000000000000009999123100000010000000000000BRGGRCCTF002191
012024040212GLOG11      010FII PLURAL LCI  ER       R$  000000000670000000000068080000000006700000000000674300000000067200000000006720000000000678600045000000000000000838000000000005651045000000000000009999123100000010000000000000BRGLOGCTF000111
012024040212PORD11      010FII POLO CRICI  ER       R$  000000000916000000000091650000000009132000000000915500000000091650000000009147000000000916500402000000000000004290000000000039278127000000000000009999123100000010000000000000BRPORDCTF005171
012024040212PQAG11      010FII PARQ ANHCI  ER       R$  000000000583600000000059900000000005836000000000598500000000059730000000005804000000000597400021000000000000000517000000000003094749000000000000009999123100000010000000000000BRPQAGCTF009146
